:020000020000FC
:0200000025C217
:040008000C94310221
:040004000C949101C6
:1000600025E02A95F1F7089525E02A95F1F70895FE
:100070000E94B9000E94C3000E94E200783051ED56
:100080000E94CB000E94E6005F77252F0E94DB01D3
:1000900050936601052F0E94E6005F77509365013B
:1000A0000E94E6005F73509364010E94E6000E9484
:1000B000E6005F73509361010E94E6005F71509308
:1000C00062010E94E6005F7F509363010E94D500A9
:1000D00008950E94B9000E94C30050ED0E94CB0019
:1000E00057E00E94CB0050E00E94CB000E94D50058
:1000F0000E94DD000E94C30050ED0E94CB0054E03E
:100100000E94CB00509167010E94CB005091680182
:100110000E94CB00509169010E94CB000E94D50043
:1001200008950E94B9000E94C30050ED0E94CB00C8
:1001300057E00E94CB0050E00E94CB000E94D50007
:100140000E94DD000E94C30050ED0E94CB0050E0F1
:100150000E94CB0050916C010E94CB0050916B012A
:100160000E94CB0050916A010E94CB000E94D500F2
:10017000089550E05093B90050E25093B80054E015
:100180005093BC00089554EA5093BC005091BC00B9
:1001900057FDFCCF08955093BB0054E85093BC002A
:1001A0005091BC0057FFFCCF089554E95093BC0018
:1001B0005091BC0054FFFCCF08956FEF6A9500008A
:1001C000E9F708957091B900787F089554EC509341
:1001D000BC005091BC0057FFFCCF5091BB0008956C
:1001E00000916101102F110F110F110F110F1F70CE
:1001F0000F701D930D9300916201102F110F110FBD
:10020000110F110F1F700F701D930D93009163015B
:10021000102F110F110F110F110F1F700F701D9361
:100220000D9300916401102F110F110F110F110F79
:100230001F700F701D930D9300916501102F110F0A
:10024000110F110F110F1F700F701D930D9300915F
:1002500060010D930CE20D9300916A0410E1010F0F
:1002600000936A0408951FEFADE6B1E020E02D93FE
:100270001A95E9F7ADE6B1E010E010936A0408952D
:10028000CDE6D1E0089520E010916A040FEF2D93A0
:1002900013951017E0F310936A04089508951091D0
:1002A0007A00106410937A0010917A0016FDFCCF4A
:1002B0001091780020917900889417950E9463012D
:1002C00000936001089510E00A3018F00A50139569
:1002D000FBCF010F08950591003039F00093C6005F
:1002E0000091C00005FFFCCFF6CF08950D910030BE
:1002F00039F00093C6000091C00005FFFCCFF6CF97
:1003000008950091C00007FFFCCF05B1003009F04F
:100310000D9308951091C00017FFFCCF2091C600E7
:100320000895F89400E10BB9E0E0FAE0D4DFABE621
:10033000B4E0F0DF40D0213319F439D07894189527
:10034000223319F432D078941895233351F702D020
:1003500078941895EAE4FAE0BEDFABE6B4E0DADFC1
:100360002D93D8DF2D93D6DFD5DF2D93D3DF2D93BB
:10037000D1DFD0DF2D93CEDF2D93CCDFCBDF2D93DC
:10038000C9DF2D93C7DFC6DF2D93C4DF2D93C2DFF6
:10039000C1DF2D93BFDF2D9320E02D93ABE6B4E0BA
:1003A000A5DFABE6B4E01DD0089595DF0895EEE338
:1003B000FAE091DF08950091C00005FFFCCF209383
:1003C000C6000091C00005FFFCCF08950D910053B9
:1003D000000F000F000F000F102F0D910053010FA1
:1003E0000895F4DF00936701F1DF00936801EEDF09
:1003F00000936901EBDF00936A01E8DF00936B0172
:10040000E5DF00936C01089510E410937C0017E879
:1004100010937A0000E00093C50003E30093C4004A
:1004200008E10093C1000EE00093C20000E008E084
:100430000EBF0FEF0DBF0CE00BB90AE0009369008F
:1004400003E00DBB03E00CBB789408950E94040206
:100450000ADF25DF0DDE789400E00BB98895F9CF2F
:08046000FFCF00E10BB9189574
:100A000031207061726120626F7272617220534492
:100A10002C322070617261207472616E736665722F
:100A20006972206461746F732C332070617261206D
:100A300073657465617220686F7261200A005344A7
:100A400020626F72726164610A00496E6772657339
:100A5000652044442F4D4D2F41412048483A4D4D8B
:060A60003A5353200A0086
:00000001FF
