:020000020000FC
:02000000A8C195
:040004000C944A010D
:1000600025E02A95F1F7089525E02A95F1F70895FE
:100070000E94B5000E94BF000E94DE00A83051ED32
:100080000E94C7000E94E2005F77509366010E94C1
:10009000E200BF77B09365010E94E200BF73B093A6
:1000A00064010E94E2000E94E200BF73B09361010C
:1000B0000E94E200BF71B09362010E94E200BF7F24
:1000C000B09363010E94D10008950E94B5000E9480
:1000D000BF0050ED0E94C70057E00E94C70050E0EB
:1000E0000E94C7000E94D1000E94D9000E94BF0058
:1000F00050ED0E94C70054E00E94C7005091670174
:100100000E94C700509168010E94C7005091690188
:100110000E94C7000E94D10008950E94B5000E946D
:10012000BF0050ED0E94C70057E00E94C70050E09A
:100130000E94C7000E94D1000E94D9000E94BF0007
:1001400050ED0E94C70050E00E94C70050916C0122
:100150000E94C70050916B010E94C70050916A0134
:100160000E94C7000E94D100089550E05093B9004A
:1001700052E35093B80054E05093BC00089554EA01
:100180005093BC005091BC0057FFFCCF0895509392
:10019000BB0054E85093BC005091BC0057FFFCCF0B
:1001A000089554E95093BC005091BC0054FFFCCF1B
:1001B00008956FEF6A950000E9F70895A091B900DE
:1001C000A87F089554EC5093BC005091BC0057FF99
:1001D000FCCF5091BB000895009161010D930091F7
:1001E00062010D93009163010D93009164010D93E1
:1001F000009165010D93009160010D9300917701CD
:1002000012E1010F0093770108951AE0ADE6B1E025
:1002100020E02D931A95E9F7ADE6B1E010E01093D8
:10022000770108950895089517EC10937A001091BE
:100230007A0014FFFCCF10917800209179002DEC0A
:100240001A030092600108950591003039F000937F
:10025000C6000091C00005FFFCCFF6CF08950D91B8
:10026000003039F00093C6000091C00005FFFCCFBC
:10027000F6CF08950091C00007FFFCCF05B1003014
:1002800009F00D9308951091C00017FFFCCF209145
:10029000C600089500E10BB9E0E0FAE0D5DFA8E779
:1002A000B1E0F1DF2BD0213311F424D018952233A3
:1002B00011F41ED01895233369F701D01895EAE49C
:1002C000FAE0C2DFA8E7B1E0DEDF2D93DCDF2D939B
:1002D000DADFD9DF2D93D7DF2D93D5DFD4DF2D9350
:1002E000D2DF2D9320E02D93A8E7B1E0B8DF089589
:1002F000ABDF0895EEE3FAE0A7DF08950091C000B8
:1003000005FFFCCF2093C6000091C00005FFFCCF85
:100310000895389810E000937C0000E00093C50039
:1003200003E30093C40008E10093C1000EE00093D2
:10033000C20000E008E00EBF0FEF0DBF0CE00BB9EC
:100340000AE00093690003E00DBB03E00CBB789466
:1003500008950E94890159DF67DF8ADE3DDF109131
:0C03600077011C330AF051DFF7CFFFCF0C
:100A000031207061726120626F7272617220534492
:100A10002C322070617261207472616E736665722F
:100A20006972206461746F732C332070617261206D
:100A300073657465617220686F7261200A005344A7
:100A400020626F72726164610A00496E6772657339
:0C0A5000652048483A4D4D3A53530A00C7
:00000001FF
