:020000020000FC
:02000000C1C07D
:1000600025E02A95F1F7089525E02A95F1F70895FE
:1000700024E1209361012AE0209362012FE0209384
:1000800063012DE0209364012FE020936501089522
:100090000895009161010D930FE20D9300916201AB
:1000A0000D930FE20D93009163010D930CE20D93FC
:1000B000009164010D930AE30D93009165010D9386
:1000C0000CE20D93009160010D930BE30D930091F1
:1000D0007A011FE0010F00937A01089514E1A6E66A
:1000E000B1E020E02D931A95E9F7A6E6B1E010E023
:1000F00010937A0108950895089513B11093600143
:1001000008950591003039F00093C6000091C000B9
:1001100006FFFCCFF6CF08950091C00007FFFCCF8B
:1001200005B1003009F001930895E0E0FAE0E9DF5D
:10013000EBE7F1E0F1DFEBE7F1E00081013009F4FA
:100140000895023011F409D00895033071F701D0F9
:100150000895EBE7F1E0E0DF0895D3DF089510E0C4
:1001600004B900E00093C50003E30093C40008E174
:100170000093C10006E80093C20008E00EBF0FEF35
:100180000DBF08950E94AF000E949500A7DFB5DF64
:100190006FDF7FDF10917A01183C0AF09FDFF7CF05
:0201A000FFCF8F
:100A000031207061726120626F7272617220534492
:100A10002C322070617261207472616E736665722F
:100A20006972206461746F732C332070617261206D
:100A300073657465617220686F726100534420624F
:100A40006F72726164612000496E67726573652020
:0A0A500048483A4D4D3A5353200038
:00000001FF
