:020000020000FC
:02000000CCC072
:040004000C949500C3
:1000600025E02A95F1F7089525E02A95F1F70895FE
:1000700024E1209361012AE0209362012FE0209384
:1000800063012DE0209364012FE020936501089522
:100090000895009161010D930FE20D9300916201AB
:1000A0000D930FE20D93009163010D930CE20D93FC
:1000B000009164010D930AE30D93009165010D9386
:1000C0000CE20D93009160010D930BE30D930091F1
:1000D0007A011FE0010F00937A01089514E1A6E66A
:1000E000B1E020E02D931A95E9F7A6E6B1E010E023
:1000F00010937A0108950895089513B11093600143
:1001000008950591003039F00093C6000091C000B9
:1001100006FFFCCFF6CF08950091C00007FFFCCF8B
:1001200005B1003009F00193089500E10BB9E0E05A
:10013000FAE0E7DFEBE7F1E0EFDFEBE7F1E000818A
:10014000013009F41895023011F409D018950330E4
:1001500061F701D01895EBE7F1E0DEDF0895D1DF1C
:10016000089510E004B900E00093C50003E3009394
:10017000C40008E10093C10006E80093C20000E05B
:1001800008E00EBF0FEF0DBF03E10AB905E00093D1
:10019000690003E00DBB789408950E94B1009EDFD2
:1001A00009B1000F0BB9A9DF63DF73DF10917A018A
:0A01B000183C0AF093DFF4CFFFCFF4
:100A000031207061726120626F7272617220534492
:100A10002C322070617261207472616E736665722F
:100A20006972206461746F732C332070617261206D
:100A300073657465617220686F726100534420624F
:100A40006F72726164612000496E67726573652020
:0A0A500048483A4D4D3A5353200038
:00000001FF
