:020000020000FC
:0200000061C1DC
:040004000C9428012F
:1000600025E02A95F1F7089525E02A95F1F70895FE
:100070000E94AF000E94B9000E94D800A830E9F4A5
:10008000B1EDB093BB0054E85093BC005091BC005C
:1000900057FFFCCF0E94D800A03479F454E8509365
:1000A000BC005091BC0057FFFCCFB091BB000E9438
:1000B000D800A83511F40E94CB00000008950E94DA
:1000C000AF000E94B90050ED0E94C10057E00E94AD
:1000D000C10050E00E94C1000E94CB000E94D300EA
:1000E0000E94B90050ED0E94C10054E00E94C1007E
:1000F000509166010E94C100509167010E94C100A9
:10010000509168010E94C1000E94CB0008950E9496
:10011000AF000E94B90050ED0E94C10057E00E945C
:10012000C10050E00E94C1000E94CB000E94D30099
:100130000E94B90050ED0E94C10050E00E94C10031
:1001400050916B010E94C10050916A010E94C10050
:10015000509169010E94C1000E94CB00089550E0B7
:100160005093B90052E35093B80054E05093BC0050
:10017000089554EA5093BC005091BC0057FFFCCF47
:1001800008955093BB0054E85093BC005091BC00BC
:1001900057FFFCCF089554E95093BC005091BC0028
:1001A00054FFFCCF08956FEF6A950000E9F70895BA
:1001B000A091B900A87F0895009161010D9300916D
:1001C00062010D93009163010D93009164010D9301
:1001D000009165010D93009160010D9300917601EE
:1001E0001FE0010F0093760108951AE0ACE6B1E03C
:1001F00020E02D931A95E9F7ACE6B1E010E01093FA
:10020000760108950895089517EC10937A001091DF
:100210007A0014FFFCCF10917800209179002DEC2A
:100220001A030092600108950591003039F000939F
:10023000C6000091C00006FFFCCFF6CF08950091E4
:10024000C00007FFFCCF05B1003009F0019308950D
:1002500000E10BB9E0E0FAE0E7DFE7E7F1E0EFDF2C
:10026000E7E7F1E00081013009F41895023011F45C
:1002700009D01895033061F701D01895E7E7F1E050
:10028000DEDF0895D1DF0895389810E000937C00F8
:1002900000E00093C50003E30093C40008E100936D
:1002A000C10006E80093C20000E008E00EBF0FEFB7
:1002B0000DBF03E10AB905E00093690003E00DBB3F
:1002C000789408950E94440190DF09B1000F0BB9A2
:1002D0009BDFCEDE71DF109176011C330AF085DFE3
:0402E000F4CFFFCF89
:100A000031207061726120626F7272617220534492
:100A10002C322070617261207472616E736665722F
:100A20006972206461746F732C332070617261206D
:100A300073657465617220686F726100534420624F
:100A40006F72726164612000496E67726573652020
:0A0A500048483A4D4D3A5353200038
:00000001FF
