:020000020000FC
:0200000080C0BE
:1000600025E02A95F1F7089525E02A95F1F70895FE
:1000700024E1209361012AE0209362012FE0209384
:1000800063012DE0209364012FE020936501089522
:100090000895009161010D9300912F000D9300913F
:1000A00062010D9300912F000D93009163010D9358
:1000B00000912C000D93009164010D9300913A0082
:1000C0000D93009165010D9300912C000D9300910B
:1000D00060010D9300913B000D93089514E6A6E690
:1000E000B1E020E02D931A95E9F7A6E6B1E0089576
:1000F0000895089510E004B9089513B110936001B4
:10010000089508E00EBF0FEF0DBFAADFADDFFFCFF0
:00000001FF
