:020000020000FC
:0200000098C1A5
:040004000C943A011D
:1000600025E02A95F1F7089525E02A95F1F70895FE
:100070000E94AF000E94B9000E94D800A830E9F4A5
:10008000B1EDB093BB0054E85093BC005091BC005C
:1000900057FFFCCF0E94D800A03479F454E8509365
:1000A000BC005091BC0057FFFCCFB091BB000E9438
:1000B000D800A83511F40E94CB00000008950E94DA
:1000C000AF000E94B90050ED0E94C10057E00E94AD
:1000D000C10050E00E94C1000E94CB000E94D300EA
:1000E0000E94B90050ED0E94C10054E00E94C1007E
:1000F000509166010E94C100509167010E94C100A9
:10010000509168010E94C1000E94CB0008950E9496
:10011000AF000E94B90050ED0E94C10057E00E945C
:10012000C10050E00E94C1000E94CB000E94D30099
:100130000E94B90050ED0E94C10050E00E94C10031
:1001400050916B010E94C10050916A010E94C10050
:10015000509169010E94C1000E94CB00089550E0B7
:100160005093B90052E35093B80054E05093BC0050
:10017000089554EA5093BC005091BC0057FFFCCF47
:1001800008955093BB0054E85093BC005091BC00BC
:1001900057FFFCCF089554E95093BC005091BC0028
:1001A00054FFFCCF08956FEF6A950000E9F70895BA
:1001B000A091B900A87F0895009161010D9300916D
:1001C00062010D93009163010D93009164010D9301
:1001D000009165010D93009160010D9300917601EE
:1001E0001FE0010F0093760108951AE0ACE6B1E03C
:1001F00020E02D931A95E9F7ACE6B1E010E01093FA
:10020000760108950895089517EC10937A001091DF
:100210007A0014FFFCCF10917800209179002DEC2A
:100220001A030092600108950591003039F000939F
:10023000C6000091C00005FFFCCFF6CF08950D91D8
:10024000003039F00093C6000091C00005FFFCCFDC
:10025000F6CF08950091C00007FFFCCF05B1003034
:1002600009F00D9308951091C00017FFFCCF209165
:10027000C600089500E10BB9E0E0FAE0D5DFA7E79A
:10028000B1E0F1DF2BD0213311F424D018952233C3
:1002900011F41ED01895233369F701D01895EAE4BC
:1002A000FAE0C2DFA7E7B1E0DEDF2D93DCDF2D93BC
:1002B000DADFD9DF2D93D7DF2D93D5DFD4DF2D9370
:1002C000D2DF2D9320E02D93A7E7B1E0B8DF0895AA
:1002D000ABDF0895EEE3FAE0A7DF08950091C000D8
:1002E00005FFFCCF2093C6000091C00005FFFCCFA6
:1002F0000895389810E000937C0000E00093C5005A
:1003000003E30093C40008E10093C1000EE00093F2
:10031000C20000E008E00EBF0FEF0DBF0CE00BB90C
:100320000AE00093690003E00DBB03E00CBB789486
:1003300008950E94790159DF67DF9ADE3DDF109151
:0C03400076011C330AF051DFF7CFFFCF2D
:100A000031207061726120626F7272617220534492
:100A10002C322070617261207472616E736665722F
:100A20006972206461746F732C332070617261206D
:100A300073657465617220686F72610A00005344C7
:100A400020626F72726164610A00496E6772657339
:0C0A5000652048483A4D4D3A53530A00C7
:00000001FF
