:020000020000FC
:0200000083C0BB
:1000600025E02A95F1F7089525E02A95F1F70895FE
:1000700024E1209361012AE0209362012FE0209384
:1000800063012DE0209364012FE020936501089522
:100090000895009161010D930FE20D9300916201AB
:1000A0000D930FE20D93009163010D930CE20D93FC
:1000B000009164010D930AE30D93009165010D9386
:1000C0000CE20D93009160010D930BE30D930091F1
:1000D0007A011FE0010F00937A01089514E1A6E66A
:1000E000B1E020E02D931A95E9F7A6E6B1E010E023
:1000F00010937A0108950895089510E004B90895C1
:1001000013B110936001089508E00EBF0FEF0DBF0B
:10011000E5DFF6DFADDFBDDF10917A01183C0AF0B4
:06012000DDDFF7CFFFCF89
:00000001FF
