:020000020000FC
:020000001BC221
:040004000C948D01CA
:1000600025E02A95F1F7089525E02A95F1F70895FE
:100070000E94B6000E94C0000E94DF00783051ED5F
:100080000E94C8000E94E3005F7750936601052F2D
:100090000E94E3005F77509365010E94E3005F7365
:1000A000509364010E94E3000E94E3005F73509349
:1000B00061010E94E3005F71509362010E94E300BE
:1000C0005F7F509363010E94D20008950E94B600A2
:1000D0000E94C00050ED0E94C80057E00E94C80076
:1000E00050E00E94C8000E94D2000E94DA000E94E4
:1000F000C00050ED0E94C80054E00E94C80050911A
:1001000067010E94C800509168010E94C800509188
:1001100069010E94C8000E94D20008950E94B600A2
:100120000E94C00050ED0E94C80057E00E94C80025
:1001300050E00E94C8000E94D2000E94DA000E9493
:10014000C00050ED0E94C80050E00E94C8005091CD
:100150006C010E94C80050916B010E94C800509130
:100160006A010E94C8000E94D200089550E0509396
:10017000B90052E35093B80054E05093BC00089586
:1001800054EA5093BC005091BC0057FFFCCF089537
:100190005093BB0054E85093BC005091BC0057FFF3
:1001A000FCCF089554E95093BC005091BC0054FF1B
:1001B000FCCF08956FEF6A950000E9F708957091FC
:1001C000B900787F089554EC5093BC005091BC0066
:1001D00057FFFCCF5091BB00089500916101102F93
:1001E000110F110F110F110F1F700F701D930D9331
:1001F00000916201102F110F110F110F110F1F70BD
:100200000F701D930D9300916301102F110F110FAB
:10021000110F110F1F700F701D930D93009164014A
:10022000102F110F110F110F110F1F700F701D9351
:100230000D9300916501102F110F110F110F110F68
:100240001F700F701D930D93009160010D930CE2D0
:100250000D9300916A0410E1010F00936A04089560
:100260001FEFADE6B1E020E02D931A95E9F7ADE67A
:10027000B1E010E010936A040895CDE6D1E008954E
:1002800020E010916A040FEF2D9313951017E0F3FF
:1002900010936A040895089517EC10937A00109152
:1002A0007A0014FFFCCF10917800209179002DEC9A
:1002B0001A03002D0E945F0100936001089510E071
:1002C0000A3018F00A501395FBCF010F08950591DD
:1002D000003039F00093C6000091C00005FFFCCF4C
:1002E000F6CF08950D91003039F00093C6000091CB
:1002F000C00005FFFCCFF6CF08950091C00007FFB6
:10030000FCCF05B1003009F00D9308951091C000A5
:1003100017FFFCCF2091C600089500E10BB9E0E083
:10032000FAE0D5DFABE6B4E0F1DF3DD0213311F4E4
:1003300036D01895223311F430D01895233369F74D
:1003400001D01895EAE4FAE0C2DFABE6B4E0DEDF04
:100350002D93DCDF2D93DADFD9DF2D93D7DF2D93BB
:10036000D5DFD4DF2D93D2DF2D93D0DFCFDF2D93D8
:10037000CDDF2D93CBDFCADF2D93C8DF2D93C6DFF2
:10038000C5DF2D93C3DF2D9320E02D93ABE6B4E0C2
:10039000A9DFABE6B4E01DD0089599DF0895EEE340
:1003A000FAE095DF08950091C00005FFFCCF20938F
:1003B000C6000091C00005FFFCCF08950D910053C9
:1003C000000F000F000F000F102F0D910053010FB1
:1003D0000895F4DF00936701F1DF00936801EEDF19
:1003E00000936901EBDF00936A01E8DF00936B0182
:1003F000E5DF00936C010895389810E000937C00CD
:1004000000E00093C50003E30093C40008E10093FB
:10041000C1000EE00093C20000E008E00EBF0FEF45
:100420000DBF0CE00BB90AE00093690003E00DBBBF
:1004300003E00CBB789408950E94FC010E948D019A
:100440000FDF01E60E94D30127DF12DEC6DE109126
:0C0450006A041C330AF004DFF4CFFFCF75
:100A000031207061726120626F7272617220534492
:100A10002C322070617261207472616E736665722F
:100A20006972206461746F732C332070617261206D
:100A300073657465617220686F7261200A005344A7
:100A400020626F72726164610A00496E6772657339
:100A5000652044442F4D4D2F41412048483A4D4D8B
:060A60003A5353200A0086
:00000001FF
